{
  "transactions": [
    {
      "hash": "0x946bb54b0e452f4ffdae5048eed213a61cb6a56fb72e191862b17cbf4a714af6",
      "transactionType": "CALL",
      "contractName": null,
      "contractAddress": "0xbD64DBa57199793701f85C642562753066Fbda91",
      "function": "registerNode(uint8,bytes,bytes32[])",
      "arguments": [
        "1",
        "0x0000000000000000000000000000000000000000000000000000000000000000",
        "[0x1838ca4ae84d99e67f22adba5fa55985b13d5378e623d28e40a93c86d0038d0b, 0x1838ca4ae84d99e67f22adba5fa55985b13d5378e623d28e40a93c86d0038d0b]"
      ],
      "transaction": {
        "type": "0x00",
        "from": "0x7348566ff2c85bb9503001ca4c6a97f7d6f7dff6",
        "to": "0xbd64dba57199793701f85c642562753066fbda91",
        "gas": "0x47637",
        "value": "0x0",
        "data": "0xdeba1b980000000000000000000000000000000000000000000000000000000000000001000000000000000000000000000000000000000000000000000000000000006000000000000000000000000000000000000000000000000000000000000000a00000000000000000000000000000000000000000000000000000000000000020000000000000000000000000000000000000000000000000000000000000000000000000000000000000000000000000000000000000000000000000000000021838ca4ae84d99e67f22adba5fa55985b13d5378e623d28e40a93c86d0038d0b1838ca4ae84d99e67f22adba5fa55985b13d5378e623d28e40a93c86d0038d0b",
        "nonce": "0x188"
      },
      "additionalContracts": [],
      "isFixedGasLimit": false
    },
    {
      "hash": "0x89d1fd53967b53171bbbc1d7a5461bb730f03e025042f0cdd63c34bd47545bf3",
      "transactionType": "CALL",
      "contractName": null,
      "contractAddress": "0xbD64DBa57199793701f85C642562753066Fbda91",
      "function": "registerStaticNode(bytes32,bytes32)",
      "arguments": [
        "0x000000000000000000000000000000000000000000000000000000000000002e",
        "0xa0ab02f3e816978ec5c73fd545bd305ff48da3f4fe442203a2e7130cfdf7a076"
      ],
      "transaction": {
        "type": "0x00",
        "from": "0x7348566ff2c85bb9503001ca4c6a97f7d6f7dff6",
        "to": "0xbd64dba57199793701f85c642562753066fbda91",
        "gas": "0x15f54",
        "value": "0x0",
        "data": "0x903c353e000000000000000000000000000000000000000000000000000000000000002ea0ab02f3e816978ec5c73fd545bd305ff48da3f4fe442203a2e7130cfdf7a076",
        "nonce": "0x189"
      },
      "additionalContracts": [],
      "isFixedGasLimit": false
    }
  ],
  "receipts": [
    {
      "transactionHash": "0x946bb54b0e452f4ffdae5048eed213a61cb6a56fb72e191862b17cbf4a714af6",
      "transactionIndex": "0x5a",
      "blockHash": "0x11dc5fa288cc69bf90718be4282bd794fcfb4a4eef620313aac636961d53b2d3",
      "blockNumber": "0x35452b5",
      "from": "0x7348566FF2C85BB9503001cA4c6a97F7D6F7DFf6",
      "to": "0xbD64DBa57199793701f85C642562753066Fbda91",
      "cumulativeGasUsed": "0xafd3d1",
      "gasUsed": "0x30d01",
      "contractAddress": null,
      "logs": [
        {
          "address": "0xbD64DBa57199793701f85C642562753066Fbda91",
          "topics": [
            "0xcb64985827770858ec421ad26da7e558c757541643036ce44d6b4eb9e8e5dc5e"
          ],
          "data": "0xa0ab02f3e816978ec5c73fd545bd305ff48da3f4fe442203a2e7130cfdf7a0760000000000000000000000000000000000000000000000000000000000000001000000000000000000000000000000000000000000000000000000000000008000000000000000000000000000000000000000000000000000000000000000c00000000000000000000000000000000000000000000000000000000000000020000000000000000000000000000000000000000000000000000000000000000000000000000000000000000000000000000000000000000000000000000000021838ca4ae84d99e67f22adba5fa55985b13d5378e623d28e40a93c86d0038d0b1838ca4ae84d99e67f22adba5fa55985b13d5378e623d28e40a93c86d0038d0b",
          "blockHash": "0x11dc5fa288cc69bf90718be4282bd794fcfb4a4eef620313aac636961d53b2d3",
          "blockNumber": "0x35452b5",
          "transactionHash": "0x946bb54b0e452f4ffdae5048eed213a61cb6a56fb72e191862b17cbf4a714af6",
          "transactionIndex": "0x5a",
          "logIndex": "0x192",
          "removed": false
        },
        {
          "address": "0x0000000000000000000000000000000000001010",
          "topics": [
            "0x4dfe1bbbcf077ddc3e01291eea2d5c70c2b422b415d95645b9adcfd678cb1d63",
            "0x0000000000000000000000000000000000000000000000000000000000001010",
            "0x0000000000000000000000007348566ff2c85bb9503001ca4c6a97f7d6f7dff6",
            "0x000000000000000000000000ef46d5fe753c988606e6f703260d816af53b03eb"
          ],
          "data": "0x00000000000000000000000000000000000000000000000000186952ba89f646000000000000000000000000000000000000000000000000889bae94b6b2d29600000000000000000000000000000000000000000000032f835b3e3fe903de8000000000000000000000000000000000000000000000000088834541fc28dc5000000000000000000000000000000000000000000000032f8373a792a38dd4c6",
          "blockHash": "0x11dc5fa288cc69bf90718be4282bd794fcfb4a4eef620313aac636961d53b2d3",
          "blockNumber": "0x35452b5",
          "transactionHash": "0x946bb54b0e452f4ffdae5048eed213a61cb6a56fb72e191862b17cbf4a714af6",
          "transactionIndex": "0x5a",
          "logIndex": "0x193",
          "removed": false
        }
      ],
      "status": "0x1",
      "logsBloom": "0x00000000000000000000000020000000000000000000000000000000040000000000000000000000000000000000000000008000000000000000000000000000000000000000000000000000000000800004000000000000000100000000000000000000000000000000000000000000000000000000000080000000000000000000000000000000000000000000010040000000000000000000000000000000200000000000000000000000000000000000000000000001000010204000004000000000040000000001000000000000000000000000000000100000000000000000000000000000000000000100000002000000000000000000000000100000",
      "type": "0x0",
      "effectiveGasPrice": "0x39e8244417"
    },
    {
      "transactionHash": "0x89d1fd53967b53171bbbc1d7a5461bb730f03e025042f0cdd63c34bd47545bf3",
      "transactionIndex": "0x3a",
      "blockHash": "0x0f0df0af58f419e8244f7d16185351fb480b7e3078b7c894105534096ea17d0f",
      "blockNumber": "0x35452b9",
      "from": "0x7348566FF2C85BB9503001cA4c6a97F7D6F7DFf6",
      "to": "0xbD64DBa57199793701f85C642562753066Fbda91",
      "cumulativeGasUsed": "0x8fe1f1",
      "gasUsed": "0xf03a",
      "contractAddress": null,
      "logs": [
        {
          "address": "0xbD64DBa57199793701f85C642562753066Fbda91",
          "topics": [
            "0x8f4e57f4a6f894e01bd1c83a12b4d445e7f8b9159a8d609f0b51b0d35d864598"
          ],
          "data": "0x000000000000000000000000000000000000000000000000000000000000002ea0ab02f3e816978ec5c73fd545bd305ff48da3f4fe442203a2e7130cfdf7a076",
          "blockHash": "0x0f0df0af58f419e8244f7d16185351fb480b7e3078b7c894105534096ea17d0f",
          "blockNumber": "0x35452b9",
          "transactionHash": "0x89d1fd53967b53171bbbc1d7a5461bb730f03e025042f0cdd63c34bd47545bf3",
          "transactionIndex": "0x3a",
          "logIndex": "0xc9",
          "removed": false
        },
        {
          "address": "0x0000000000000000000000000000000000001010",
          "topics": [
            "0x4dfe1bbbcf077ddc3e01291eea2d5c70c2b422b415d95645b9adcfd678cb1d63",
            "0x0000000000000000000000000000000000000000000000000000000000001010",
            "0x0000000000000000000000007348566ff2c85bb9503001ca4c6a97f7d6f7dff6",
            "0x000000000000000000000000ef46d5fe753c988606e6f703260d816af53b03eb"
          ],
          "data": "0x0000000000000000000000000000000000000000000000000009d15306a3cb7400000000000000000000000000000000000000000000000087eb05242ad4637f00000000000000000000000000000000000000000000032fc0a35b1ea341cba100000000000000000000000000000000000000000000000087e133d12430980b00000000000000000000000000000000000000000000032fc0ad2c71a9e59715",
          "blockHash": "0x0f0df0af58f419e8244f7d16185351fb480b7e3078b7c894105534096ea17d0f",
          "blockNumber": "0x35452b9",
          "transactionHash": "0x89d1fd53967b53171bbbc1d7a5461bb730f03e025042f0cdd63c34bd47545bf3",
          "transactionIndex": "0x3a",
          "logIndex": "0xca",
          "removed": false
        }
      ],
      "status": "0x1",
      "logsBloom": "0x00000000000000000000000020000000000000000000000000000000040000000000000000000000000000000000000000008000000000000000000000000000000000000000000000000000000000800000000000000000000100000000000000000000000000000000000000000000000000000000000080000000000000000000200000000000000000000000010040000000000000000000000000000000200000000020000000000000000000000000000000000000000010204000004000000000040000000001000000400000000000000000000000100000000000000000000000000000000000000000000002000000000000000000000000100000",
      "type": "0x0",
      "effectiveGasPrice": "0x39e8244417"
    }
  ],
  "libraries": [],
  "pending": [],
  "returns": {},
  "timestamp": 1713198980,
  "chain": 137,
  "commit": "a06903c"
}